01remessa01cobranca       03521002075         PEUGEOT                       409Unibanco       0401951.600BPL                                                                                                                                                                                                                                                                                              000001
1026793675200017303521002075         UN1002015                00000000000                              R$14501UN1002015 31019500000000459924090000001A030195010500000000000010000000000000000000000000000000000000000000000273712978000150ARDENNE COMERCIO DE VEICULOS LTDA       RUA CARLOS MAY,185            VILA BAEPECENTRO      89256900JARAGUA DO SUL SC                                           000002
1026793675200017303521002075         UN1002010                00000000000                              R$14501UN1002010 31019500000001508484090000001A030195010500000000000030000000000000000000000000000000000000000000000297325112000669METALMOVEIS SARANDI LTDA                RUA:DONA SEBASTIANA 126                 SAO JOAO    90020010PORTO ALEGRE   RS                                           000003
1026793675200017303521002075         UN1002016                00000000000                              R$14501UN1002016 31019500000001128704090000001A030195010500000000000020000000000000000000000000000000000000000000000297325112000669METALMOVEIS SARANDI LTDA                RUA:DONA SEBASTIANA 126                 SAO JOAO    90020010PORTO ALEGRE   RS                                           000004
1026793675200017303521002075         UN1002025                00000000000                              R$14501UN1002025 31019500000001159394090000001A030195010500000000000020000000000000000000000000000000000000000000000274595323000101BOURBON AUTOMOVEIS LTDA                 AV.PRES HUMBERTO A.CASTELO BRACENTRO    CENTRO      07040030GUARULHOS      SP                                           000005
1026793675200017303521002075         UN1002008                00000000000                              R$14501UN1002008 31019500000001778534090000001A030195010500000000000040000000000000000000000000000000000000000000000270000120000174CALAIS VEICULOS LTDA                    AV. FERNANDES LIMA,355        FAROL     FAROL       57055000MACEIO         AL                                           000006
1026793675200017303521002075         UN1002017                00000000000                              R$14501UN1002017 31019500000001031084090000001A030195010500000000000020000000000000000000000000000000000000000000000253064325000102ENDO VEICULOS LTDA                      AV.ENG.NECKER C.DE CAMARGOS , VIL.RIO   CENTRO      14783080BARRETOS       SP                                           000007
1026793675200017303521002075         UN1002012                00000000000                              R$14501UN1002012 31019500000000192174090000001A030195010500000000000000000000000000000000000000000000000000000000000247903166000181CAR PLANNING VEICULOS LTDA              RUA DR.JOSE AUREO BUSTAMANTE, BROKLIM   CAPITAL     04710080SAO PAULO      SP                                           000008
1026793675200017303521002075         UN1002026                00000000000                              R$14501UN1002026 31019500000000424764090000001A030195010500000000000010000000000000000000000000000000000000000000000273070773000118AZRA DISTRIBUIDORA DE VEICULOS LTDA     RUA GUAICURUS,712             LAPA      PERDIZES    05033001SAO PAULO      SP                                           000009
1026793675200017303521002075         UN1002024                00000000000                              R$14501UN1002024 31019500000000572254090000001A030195010500000000000010000000000000000000000000000000000000000000000279875308000211EUROPE VEICULOS LTDA.                   RUA FERNANDO MACHADO,1556 D   CENTRO    CENTRO      89802000CHAPECO        SC                                           000010
1026793675200017303521002075         UN1002020                00000000000                              R$14501UN1002020 31019500000002958044090000001A030195010500000000000060000000000000000000000000000000000000000000000272112030000109IVO CRISTOVAO GARCIA & CIA LTDA.        RUA CARLOS GOMES, 2635        CENTRO    CENTRO      85807700CASCAVEL       PR                                           000011
1026793675200017303521002075         UN1002018                00000000000                              R$14501UN1002018 31019500000000332934090000001A030195010500000000000010000000000000000000000000000000000000000000000213257506000122IRMAOS GASPARETTO LTDA                  RUA RETIRO SAO BENTO,70       VILA RICA VILA RICA   47800000BARREIRAS      BA                                           000012
1026793675200017303521002075         UN1000960C               00000000000                              R$14501UN1000960C20029500000002164374090000001A221194010500000000000040000000000000000000000000000000000000000000000237855897000145LA ROCHELLE VEICULOS LTDA.              RUA JOSE DE CARVALHO BASTOS, 8CENTRO    CENTRO      75800000JATAI          GO                                           000013
1026793675200017303521002075         UN1002011                00000000000                              R$14501UN1002011 31019500000000701314090000001A030195010500000000000010000000000000000000000000000000000000000000000200168239000175LIDO AUTOMOVEIS LTDA                    AV. EPITACIO PESSOA, 1430               TORRE       58040000JOAO PESSOA    PB                                           000014
1026793675200017303521002075         UN1000959C               00000000000                              R$14501UN1000959C20029500000001360714090000001A221194010500000000000030000000000000000000000000000000000000000000000274131525000100LILLE VEICULOS LTDA                     AV.RIO DAS GARCAS , 29        CENTRO    CENTRO      78600000BARRA DO GARCA MT                                           000015
1026793675200017303521002075         UN1002013                00000000000                              R$14501UN1002013 31019500000000030324090000001A030195010500000000000000000000000000000000000000000000000000000000000273966764000100LORRAINE VEICULOS LTDA                  AV.LUCIO MEIRA,350 LOJA A E B TERESOPOLIVARZEA      25953000RIO DE JANEIRO RJ                                           000016
1026793675200017303521002075         UN1002014                00000000000                              R$14501UN1002014 31019500000000344584090000001A030195010500000000000010000000000000000000000000000000000000000000000200123825000101MARTINIQUE DISTR VEIC PECAS E SERV LTDA AV. ENG. ALBERTO ZAGOTTIS, 116          CAMPO GRANDE04675230SAO PAULO      SP                                           000017
1026793675200017303521002075         UN1002021                00000000000                              R$14501UN1002021 31019500000001508484090000001A030195010500000000000030000000000000000000000000000000000000000000000294884038000118VALENCE VEICULOS LTDA                   AV.JOAO GOULART,425           RODOVIARIOSAO BORJA   97670000SAO BORJA      RS                                           000018
1026793675200017303521002075         UN1002023                00000000000                              R$14501UN1002023 31019500000000037854090000001A030195010500000000000000000000000000000000000000000000000000000000000200030258000130PAVILLON VEICULOS E PECAS LTDA          AV. RODRIGUES ALVES, 21-70              VILA CARDIA 17013003BAURU          SP                                           000019
1026793675200017303521002075         UN1002009                00000000000                              R$14501UN1002009 31019500000000259684090000001A030195010500000000000010000000000000000000000000000000000000000000000273417628000160TOULOUSE VEICULOS LTDA                  AV. MINISTRO IVAN LINS, 304   BARRA DA TBARRA DA TIJ20620110RIO DE JANEIRO RJ                                           000020
1026793675200017303521002075         UN1002022                00000000000                              R$14501UN1002022 31019500000000787424090000001A030195010500000000000020000000000000000000000000000000000000000000000297469571000101VELIZY AUTOMOVEIS LTDA                  AV.PRESIDENTE MEDICI,56       CENTRO    CENTRO      78705000RONDONOPOLIS   MT                                           000021
9                                                                                                                                                                                                                                                                                                                                                                                                         000022
